{
  "transactions": [
    {
      "hash": "0xb3866b948a63ef5c0a56e2465e08784912e95d018be36a30863db7b4b8199244",
      "transactionType": "CREATE",
      "contractName": "CDSManager",
      "contractAddress": "0xdcbecf172fe4cdffcdaddbf03c34ba36d4211064",
      "function": null,
      "arguments": [
        "0x1702087C0038e3b656DE6426566582F66265dE0e",
        "0xf39Fd6e51aad88F6F4ce6aB8827279cffFb92266"
      ],
      "transaction": {
        "from": "0xf39fd6e51aad88f6f4ce6ab8827279cfffb92266",
        "gas": "0x16ddfd",
        "value": "0x0",
        "input": "0x60806040526000600455348015601457600080fd5b506040516113b63803806113b6833981016040819052603191607c565b600180546001600160a01b039384166001600160a01b0319918216179091556000805492909316911617905560aa565b80516001600160a01b0381168114607757600080fd5b919050565b60008060408385031215608e57600080fd5b6095836061565b915060a1602084016061565b90509250929050565b6112fd806100b96000396000f3fe608060405234801561001057600080fd5b50600436106100a95760003560e01c806371f656961161007157806371f656961461016f578063a41cb5f1146101ce578063ceff1367146101e1578063df6f05e7146101f4578063e67bd78c146101fd578063f851a4401461021057600080fd5b80630a61e29a146100ae5780631928c64f146100d45780633c3cc815146100e95780635a73c3031461014957806363b7577a1461015c575b600080fd5b6100c16100bc366004611159565b61023b565b6040519081526020015b60405180910390f35b6100e76100e236600461119a565b6103b0565b005b6100fc6100f73660046111bc565b6106ae565b6040805198895260208901979097526001600160a01b03958616968801969096529390921660608601526080850152151560a0840152151560c0830152151560e0820152610100016100cb565b6100e76101573660046111bc565b610719565b6100e761016a3660046111bc565b6108ee565b6101a961017d3660046111bc565b60026020819052600091825260409091208054600182015491909201546001600160a01b039092169183565b604080516001600160a01b0390941684526020840192909252908201526060016100cb565b6100e76101dc3660046111bc565b610b94565b6100e76101ef3660046111bc565b610c94565b6100c160045481565b6100e761020b3660046111bc565b610d9d565b600054610223906001600160a01b031681565b6040516001600160a01b0390911681526020016100cb565b600080546001600160a01b0316331461026f5760405162461bcd60e51b8152600401610266906111d5565b60405180910390fd5b4282116102cd5760405162461bcd60e51b815260206004820152602660248201527f4e65787420636f75706f6e2064617465206d75737420626520696e207468652060448201526566757475726560d01b6064820152608401610266565b6040516bffffffffffffffffffffffff19606086901b1660208201526034810183905260009060540160408051808303601f190181528282528051602091820120606080850184526001600160a01b038a81168087528487018b81528787018b8152600086815260028089529089902099518a546001600160a01b0319169516949094178955905160018901555196909101959095558351948552918401889052918301869052820181905291507fd1a23f8bd6edfed2ffb9d7bb4aa148eb528eb60289342f7f11a17b7cbcdaa0f69060800160405180910390a1949350505050565b60008281526002602081905260409091209081015442106104225760405162461bcd60e51b815260206004820152602660248201527f426f6e642773206e65787420636f75706f6e206461746520697320696e20746860448201526519481c185cdd60d21b6064820152608401610266565b60018054908201546040516323b872dd60e01b815233600482015230602482015260448101919091526001600160a01b03909116906323b872dd906064016020604051808303816000875af115801561047f573d6000803e3d6000fd5b505050506040513d601f19601f820116820180604052508101906104a39190611217565b506040805161010080820183526004805483526020808401888152338587018181526000606080890182815260808a018d8152600160a08c0181815260c08d0186815260e08e018781526003805494850181559097528d517fc2575a0e9e593c00f959f8c92f12db2869c3395a3b0502d05e2516446f71f85b60069094029384015598517fc2575a0e9e593c00f959f8c92f12db2869c3395a3b0502d05e2516446f71f85c83015595517fc2575a0e9e593c00f959f8c92f12db2869c3395a3b0502d05e2516446f71f85d820180546001600160a01b03199081166001600160a01b039384161790915593517fc2575a0e9e593c00f959f8c92f12db2869c3395a3b0502d05e2516446f71f85e830180549095169082161790935590517fc2575a0e9e593c00f959f8c92f12db2869c3395a3b0502d05e2516446f71f85f82015593517fc2575a0e9e593c00f959f8c92f12db2869c3395a3b0502d05e2516446f71f86090940180549651935161ffff1990971694151561ff001916949094179215159098029190911762ff0000191662010000941515949094029390931790559254875460028901548851919096168152928301899052958201939093529293909290917f23178ce8487588929aa3a265382d74c9f8d126c671691ded254806965a8a109b910160405180910390a3600480549060006106a383611256565b919050555050505050565b600381815481106106be57600080fd5b600091825260209091206006909102018054600182015460028301546003840154600485015460059095015493955091936001600160a01b0391821693929091169160ff808216916101008104821691620100009091041688565b60006003828154811061072e5761072e61126f565b60009182526020909120600690910201600581015490915060ff166107655760405162461bcd60e51b815260040161026690611285565b600581015462010000900460ff16156107c05760405162461bcd60e51b815260206004820152601e60248201527f43445320616c72656164792061636375736564206f662064656661756c7400006044820152606401610266565b60038101546001600160a01b03163314806107e7575060028101546001600160a01b031633145b6108335760405162461bcd60e51b815260206004820152601c60248201527f4e6f742074686520434453206f776e6572206f722063726561746f72000000006044820152606401610266565b6001810154600090815260026020819052604090912090810154429061085c90620697806112ae565b116108a95760405162461bcd60e51b815260206004820152601c60248201527f43445320766572696669636174696f6e2074696d6520706173736564000000006044820152606401610266565b60058201805462ff0000191662010000179055604051339084907f6929a2633a171eff80d2e3becb50892a5673df32efe0a9f74ad7abc86ebe367d90600090a3505050565b6000600382815481106109035761090361126f565b600091825260209091206002600690920201908101549091506001600160a01b031633146109875760405162461bcd60e51b815260206004820152602b60248201527f4f6e6c7920746865204344532063726561746f722063616e207265636f76657260448201526a0818dbdb1b185d195c985b60aa1b6064820152608401610266565b600581015460ff166109cf5760405162461bcd60e51b8152602060048201526011602482015270434453206973206e6f742061637469766560781b6044820152606401610266565b600581015462010000900460ff1615610a2a5760405162461bcd60e51b815260206004820152601f60248201527f43445320686173206265656e2061636375736564206f662064656661756c74006044820152606401610266565b6001810154600090815260026020819052604090912090810154610a5190620697806112ae565b4211610ac55760405162461bcd60e51b815260206004820152603f60248201527f43616e6e6f74207265636f76657220636f6c6c61746572616c206265666f726560448201527f2035206461797320616674657220636f75706f6e2065787069726174696f6e006064820152608401610266565b60058201805460ff191690556001805460028401549183015460405163a9059cbb60e01b81526001600160a01b039384166004820152602481019190915291169063a9059cbb906044016020604051808303816000875af1158015610b2e573d6000803e3d6000fd5b505050506040513d601f19601f82011682018060405250810190610b529190611217565b5060028201546040516001600160a01b039091169084907f9132b3682703876fb5369fdc02459c90d7845a0916902857592f46df40db0e0990600090a3505050565b6000546001600160a01b03163314610bbe5760405162461bcd60e51b8152600401610266906111d5565b600060038281548110610bd357610bd361126f565b60009182526020909120600690910201600581015490915060ff16610c0a5760405162461bcd60e51b815260040161026690611285565b6005810154610100900460ff1615610c5a5760405162461bcd60e51b815260206004820152601360248201527210d114c8185b1c9958591e4818db185a5b5959606a1b6044820152606401610266565b610c6382610fa1565b604051339083907f0fd08b4e39c4ce4f71429e5703623ecf8e9e44292da54360f5469f5a95aca77690600090a35050565b6000546001600160a01b03163314610cbe5760405162461bcd60e51b8152600401610266906111d5565b600060038281548110610cd357610cd361126f565b60009182526020909120600690910201600581015490915060ff16610d0a5760405162461bcd60e51b815260040161026690611285565b6005810154610100900460ff1615610d5e5760405162461bcd60e51b815260206004820152601760248201527610db185a5b48185b1c9958591e481c1c9bd8d95cdcd959604a1b6044820152606401610266565b60058101805462ff000019169055604051339083907f78b4b412880d7fb7821e4a88e59e97e143566bc57c548dfc5dc2d7565621675490600090a35050565b600060038281548110610db257610db261126f565b60009182526020909120600690910201600581015490915060ff16610e0d5760405162461bcd60e51b8152602060048201526011602482015270434453206973206e6f742061637469766560781b6044820152606401610266565b60038101546001600160a01b031615610e5b5760405162461bcd60e51b815260206004820152601060248201526f10d114c8185b1c9958591e481cdbdb1960821b6044820152606401610266565b60018101546000908152600260208190526040909120908101544210610ed25760405162461bcd60e51b815260206004820152602660248201527f426f6e64277320636f75706f6e2064617465207061737365642c2043445320656044820152651e1c1a5c995960d21b6064820152608401610266565b60015460028301546004808501546040516323b872dd60e01b815233928101929092526001600160a01b03928316602483015260448201529116906323b872dd906064016020604051808303816000875af1158015610f35573d6000803e3d6000fd5b505050506040513d601f19601f82011682018060405250810190610f599190611217565b506003820180546001600160a01b0319163390811790915560405184907f29a7742efa803badc457b2ff6e1a69cd2e2ec88f0dfe69cee0a17ce0ef7384fa90600090a3505050565b600060038281548110610fb657610fb661126f565b60009182526020909120600690910201600581015490915060ff1661101d5760405162461bcd60e51b815260206004820152601f60248201527f43445320616c726561647920636c61696d6564206f7220696e616374697665006044820152606401610266565b6005810154610100900460ff16156110715760405162461bcd60e51b815260206004820152601760248201527610db185a5b48185b1c9958591e481c1c9bd8d95cdcd959604a1b6044820152606401610266565b600181810154600090815260026020526040908190208254600385015493820154925163a9059cbb60e01b81526001600160a01b03948516600482015260248101939093529092169063a9059cbb906044016020604051808303816000875af11580156110e2573d6000803e3d6000fd5b505050506040513d601f19601f820116820180604052508101906111069190611217565b5060058201805461ffff191661010017905560038201546040516001600160a01b039091169084907fc82e5847744f65d429e2586b24212e8cad4e677da9a21ae894630ffdfff19b6e90600090a3505050565b60008060006060848603121561116e57600080fd5b83356001600160a01b038116811461118557600080fd5b95602085013595506040909401359392505050565b600080604083850312156111ad57600080fd5b50508035926020909101359150565b6000602082840312156111ce57600080fd5b5035919050565b60208082526022908201527f4f6e6c792061646d696e2063616e20706572666f726d2074686973206163746960408201526137b760f11b606082015260800190565b60006020828403121561122957600080fd5b8151801515811461123957600080fd5b9392505050565b634e487b7160e01b600052601160045260246000fd5b60006001820161126857611268611240565b5060010190565b634e487b7160e01b600052603260045260246000fd5b6020808252600f908201526e43445320697320696e61637469766560881b604082015260600190565b808201808211156112c1576112c1611240565b9291505056fea2646970667358221220f9d351fadf1e12ada1bf26ccb63678d5885394c3e0eddd4987a04dfd0d87ec1f64736f6c634300081a00330000000000000000000000001702087c0038e3b656de6426566582f66265de0e000000000000000000000000f39fd6e51aad88f6f4ce6ab8827279cfffb92266",
        "nonce": "0x13c0",
        "chainId": "0x14a34"
      },
      "additionalContracts": [],
      "isFixedGasLimit": false
    },
    {
      "hash": "0x87f014ac1c1fb8383a554b990bc15a4fdec53691bfa64ea189b346da16cb86dd",
      "transactionType": "CALL",
      "contractName": "CDSManager",
      "contractAddress": "0xdcbecf172fe4cdffcdaddbf03c34ba36d4211064",
      "function": "addBond(address,uint256,uint256)",
      "arguments": [
        "0xbcB5CB18a5CAa970Fe18669e59737f69893DE900",
        "100000000",
        "1731339589"
      ],
      "transaction": {
        "from": "0xf39fd6e51aad88f6f4ce6ab8827279cfffb92266",
        "to": "0xdcbecf172fe4cdffcdaddbf03c34ba36d4211064",
        "gas": "0x1f557",
        "value": "0x0",
        "input": "0x0a61e29a000000000000000000000000bcb5cb18a5caa970fe18669e59737f69893de9000000000000000000000000000000000000000000000000000000000005f5e1000000000000000000000000000000000000000000000000000000000067322545",
        "nonce": "0x13c1",
        "chainId": "0x14a34"
      },
      "additionalContracts": [],
      "isFixedGasLimit": false
    },
    {
      "hash": "0xe24805d2c33967c6aebbf4c878cd5b14dddff028074ee59ef0adf7f43536e9bb",
      "transactionType": "CALL",
      "contractName": "CDSManager",
      "contractAddress": "0xdcbecf172fe4cdffcdaddbf03c34ba36d4211064",
      "function": "addBond(address,uint256,uint256)",
      "arguments": [
        "0x17BCB6653b0e560D7961072A7dcb17f428a92c8d",
        "100000000",
        "1731339589"
      ],
      "transaction": {
        "from": "0xf39fd6e51aad88f6f4ce6ab8827279cfffb92266",
        "to": "0xdcbecf172fe4cdffcdaddbf03c34ba36d4211064",
        "gas": "0x212e7",
        "value": "0x0",
        "input": "0x0a61e29a00000000000000000000000017bcb6653b0e560d7961072a7dcb17f428a92c8d0000000000000000000000000000000000000000000000000000000005f5e1000000000000000000000000000000000000000000000000000000000067322545",
        "nonce": "0x13c2",
        "chainId": "0x14a34"
      },
      "additionalContracts": [],
      "isFixedGasLimit": false
    },
    {
      "hash": "0x6cdf604b28c833049a540527a2677411c6349d807b0debda669a7d96394136ec",
      "transactionType": "CALL",
      "contractName": "CDSManager",
      "contractAddress": "0xdcbecf172fe4cdffcdaddbf03c34ba36d4211064",
      "function": "addBond(address,uint256,uint256)",
      "arguments": [
        "0x895F4555EdFa373F2207918D9e1640C48E4288Ce",
        "100000000",
        "1731339589"
      ],
      "transaction": {
        "from": "0xf39fd6e51aad88f6f4ce6ab8827279cfffb92266",
        "to": "0xdcbecf172fe4cdffcdaddbf03c34ba36d4211064",
        "gas": "0x212e7",
        "value": "0x0",
        "input": "0x0a61e29a000000000000000000000000895f4555edfa373f2207918d9e1640c48e4288ce0000000000000000000000000000000000000000000000000000000005f5e1000000000000000000000000000000000000000000000000000000000067322545",
        "nonce": "0x13c3",
        "chainId": "0x14a34"
      },
      "additionalContracts": [],
      "isFixedGasLimit": false
    }
  ],
  "receipts": [
    {
      "status": "0x1",
      "cumulativeGasUsed": "0x119852",
      "logs": [],
      "logsBloom": "0x00000000000000000000000000000000000000000000000000000000000000000000000000000000000000000000000000000000000000000000000000000000000000000000000000000000000000000000000000000000000000000000000000000000000000000000000000000000000000000000000000000000000000000000000000000000000000000000000000000000000000000000000000000000000000000000000000000000000000000000000000000000000000000000000000000000000000000000000000000000000000000000000000000000000000000000000000000000000000000000000000000000000000000000000000000000",
      "type": "0x2",
      "transactionHash": "0xb3866b948a63ef5c0a56e2465e08784912e95d018be36a30863db7b4b8199244",
      "transactionIndex": "0x0",
      "blockHash": "0xb59de9e2b679e787a50f6040689d8dc89b19902020f54cb7044d49d0bfd863a2",
      "blockNumber": "0xfba03e",
      "gasUsed": "0x119852",
      "effectiveGasPrice": "0x8",
      "blobGasPrice": "0x1",
      "from": "0xf39fd6e51aad88f6f4ce6ab8827279cfffb92266",
      "to": null,
      "contractAddress": "0xdcbecf172fe4cdffcdaddbf03c34ba36d4211064",
      "root": "0x0000000000000000000000000000000000000000000000000000000000000000"
    },
    {
      "status": "0x1",
      "cumulativeGasUsed": "0x130349",
      "logs": [
        {
          "address": "0xdcbecf172fe4cdffcdaddbf03c34ba36d4211064",
          "topics": [
            "0xd1a23f8bd6edfed2ffb9d7bb4aa148eb528eb60289342f7f11a17b7cbcdaa0f6"
          ],
          "data": "0x000000000000000000000000bcb5cb18a5caa970fe18669e59737f69893de9000000000000000000000000000000000000000000000000000000000005f5e1000000000000000000000000000000000000000000000000000000000067322545fa8c6d393f190b47737961a0292a955bbc43fcb8bc0395a53497229597bd59a4",
          "blockHash": "0xb59de9e2b679e787a50f6040689d8dc89b19902020f54cb7044d49d0bfd863a2",
          "blockNumber": "0xfba03e",
          "blockTimestamp": "0x670a9846",
          "transactionHash": "0x87f014ac1c1fb8383a554b990bc15a4fdec53691bfa64ea189b346da16cb86dd",
          "transactionIndex": "0x1",
          "logIndex": "0x0",
          "removed": false
        }
      ],
      "logsBloom": "0x00000000000000000000000000000000000000000000000000000000000000000000000000000000000000000000000000000800000000000000000000000000000000000000000000000000000000000000000000000000000000000000000000000000000000000002000000000000000000000000000000000000000000000000000000000000000000000000000000000000000000000000000000000000000000000000000000000000000000000000000000000000000000000000000000000000000000000000000000002000000000000000400000000000000000000080000000000000000000000000000000010000000000000000000000000000",
      "type": "0x2",
      "transactionHash": "0x87f014ac1c1fb8383a554b990bc15a4fdec53691bfa64ea189b346da16cb86dd",
      "transactionIndex": "0x1",
      "blockHash": "0xb59de9e2b679e787a50f6040689d8dc89b19902020f54cb7044d49d0bfd863a2",
      "blockNumber": "0xfba03e",
      "gasUsed": "0x16af7",
      "effectiveGasPrice": "0x8",
      "blobGasPrice": "0x1",
      "from": "0xf39fd6e51aad88f6f4ce6ab8827279cfffb92266",
      "to": "0xdcbecf172fe4cdffcdaddbf03c34ba36d4211064",
      "contractAddress": null,
      "root": "0x0000000000000000000000000000000000000000000000000000000000000000"
    },
    {
      "status": "0x1",
      "cumulativeGasUsed": "0x146e4c",
      "logs": [
        {
          "address": "0xdcbecf172fe4cdffcdaddbf03c34ba36d4211064",
          "topics": [
            "0xd1a23f8bd6edfed2ffb9d7bb4aa148eb528eb60289342f7f11a17b7cbcdaa0f6"
          ],
          "data": "0x00000000000000000000000017bcb6653b0e560d7961072a7dcb17f428a92c8d0000000000000000000000000000000000000000000000000000000005f5e10000000000000000000000000000000000000000000000000000000000673225452c6e7f7452dcdb55c7313910310ac2d8fcdc4b9c8f0919a1415be6ccd23c1b1d",
          "blockHash": "0xb59de9e2b679e787a50f6040689d8dc89b19902020f54cb7044d49d0bfd863a2",
          "blockNumber": "0xfba03e",
          "blockTimestamp": "0x670a9846",
          "transactionHash": "0xe24805d2c33967c6aebbf4c878cd5b14dddff028074ee59ef0adf7f43536e9bb",
          "transactionIndex": "0x2",
          "logIndex": "0x1",
          "removed": false
        }
      ],
      "logsBloom": "0x00000000000000000000000000000000000000000000000000000000000000000000000000000000000000000000000000000800000000000000000000000000000000000000000000000000000000000000000000000000000000000000000000000000000000000002000000000000000000000000000000000000000000000000000000000000000000000000000000000000000000000000000000000000000000000000000000000000000000000000000000000000000000000000000000000000000000000000000000002000000000000000400000000000000000000080000000000000000000000000000000010000000000000000000000000000",
      "type": "0x2",
      "transactionHash": "0xe24805d2c33967c6aebbf4c878cd5b14dddff028074ee59ef0adf7f43536e9bb",
      "transactionIndex": "0x2",
      "blockHash": "0xb59de9e2b679e787a50f6040689d8dc89b19902020f54cb7044d49d0bfd863a2",
      "blockNumber": "0xfba03e",
      "gasUsed": "0x16b03",
      "effectiveGasPrice": "0x8",
      "blobGasPrice": "0x1",
      "from": "0xf39fd6e51aad88f6f4ce6ab8827279cfffb92266",
      "to": "0xdcbecf172fe4cdffcdaddbf03c34ba36d4211064",
      "contractAddress": null,
      "root": "0x0000000000000000000000000000000000000000000000000000000000000000"
    },
    {
      "status": "0x1",
      "cumulativeGasUsed": "0x15d94f",
      "logs": [
        {
          "address": "0xdcbecf172fe4cdffcdaddbf03c34ba36d4211064",
          "topics": [
            "0xd1a23f8bd6edfed2ffb9d7bb4aa148eb528eb60289342f7f11a17b7cbcdaa0f6"
          ],
          "data": "0x000000000000000000000000895f4555edfa373f2207918d9e1640c48e4288ce0000000000000000000000000000000000000000000000000000000005f5e10000000000000000000000000000000000000000000000000000000000673225453965a51c0afcdc1e259b4580a71bf1777f76070730db9af025a4df31e17cb806",
          "blockHash": "0xb59de9e2b679e787a50f6040689d8dc89b19902020f54cb7044d49d0bfd863a2",
          "blockNumber": "0xfba03e",
          "blockTimestamp": "0x670a9846",
          "transactionHash": "0x6cdf604b28c833049a540527a2677411c6349d807b0debda669a7d96394136ec",
          "transactionIndex": "0x3",
          "logIndex": "0x2",
          "removed": false
        }
      ],
      "logsBloom": "0x00000000000000000000000000000000000000000000000000000000000000000000000000000000000000000000000000000800000000000000000000000000000000000000000000000000000000000000000000000000000000000000000000000000000000000002000000000000000000000000000000000000000000000000000000000000000000000000000000000000000000000000000000000000000000000000000000000000000000000000000000000000000000000000000000000000000000000000000000002000000000000000400000000000000000000080000000000000000000000000000000010000000000000000000000000000",
      "type": "0x2",
      "transactionHash": "0x6cdf604b28c833049a540527a2677411c6349d807b0debda669a7d96394136ec",
      "transactionIndex": "0x3",
      "blockHash": "0xb59de9e2b679e787a50f6040689d8dc89b19902020f54cb7044d49d0bfd863a2",
      "blockNumber": "0xfba03e",
      "gasUsed": "0x16b03",
      "effectiveGasPrice": "0x8",
      "blobGasPrice": "0x1",
      "from": "0xf39fd6e51aad88f6f4ce6ab8827279cfffb92266",
      "to": "0xdcbecf172fe4cdffcdaddbf03c34ba36d4211064",
      "contractAddress": null,
      "root": "0x0000000000000000000000000000000000000000000000000000000000000000"
    }
  ],
  "libraries": [],
  "pending": [],
  "returns": {},
  "timestamp": 1728747593,
  "chain": 84532,
  "commit": "465f6b1"
}