{
  "transactions": [
    {
      "hash": "0x627641e2df559a6b578fc87e94560bfcf0cf859f8a4ee6d4db2b55d19fad7278",
      "transactionType": "CREATE",
      "contractName": "CDSManager",
      "contractAddress": "0xa27f421da9a433b99b6fad810f74ba666f7f106f",
      "function": null,
      "arguments": [
        "0x1702087C0038e3b656DE6426566582F66265dE0e",
        "0xf39Fd6e51aad88F6F4ce6aB8827279cffFb92266"
      ],
      "transaction": {
        "from": "0xf39fd6e51aad88f6f4ce6ab8827279cfffb92266",
        "gas": "0x17a7d4",
        "value": "0x0",
        "input": "0x60806040526000600455348015601457600080fd5b5060405161146e38038061146e833981016040819052603191607c565b600180546001600160a01b039384166001600160a01b0319918216179091556000805492909316911617905560aa565b80516001600160a01b0381168114607757600080fd5b919050565b60008060408385031215608e57600080fd5b6095836061565b915060a1602084016061565b90509250929050565b6113b5806100b96000396000f3fe608060405234801561001057600080fd5b50600436106100b45760003560e01c806371f656961161007157806371f65696146101b8578063a41cb5f114610217578063ceff13671461022a578063df6f05e71461023d578063e67bd78c14610246578063f851a4401461025957600080fd5b80630a61e29a146100b95780631928c64f146100df57806326d6c97b146100f45780633c3cc815146101325780635a73c3031461019257806363b7577a146101a5575b600080fd5b6100cc6100c7366004611211565b610284565b6040519081526020015b60405180910390f35b6100f26100ed366004611252565b6103f9565b005b610107610102366004611274565b6106f7565b6040805182516001600160a01b031681526020808401519082015291810151908201526060016100d6565b610145610140366004611274565b610766565b6040805198895260208901979097526001600160a01b03958616968801969096529390921660608601526080850152151560a0840152151560c0830152151560e0820152610100016100d6565b6100f26101a0366004611274565b6107d1565b6100f26101b3366004611274565b6109a6565b6101f26101c6366004611274565b60026020819052600091825260409091208054600182015491909201546001600160a01b039092169183565b604080516001600160a01b0390941684526020840192909252908201526060016100d6565b6100f2610225366004611274565b610c4c565b6100f2610238366004611274565b610d4c565b6100cc60045481565b6100f2610254366004611274565b610e55565b60005461026c906001600160a01b031681565b6040516001600160a01b0390911681526020016100d6565b600080546001600160a01b031633146102b85760405162461bcd60e51b81526004016102af9061128d565b60405180910390fd5b4282116103165760405162461bcd60e51b815260206004820152602660248201527f4e65787420636f75706f6e2064617465206d75737420626520696e207468652060448201526566757475726560d01b60648201526084016102af565b6040516bffffffffffffffffffffffff19606086901b1660208201526034810183905260009060540160408051808303601f190181528282528051602091820120606080850184526001600160a01b038a81168087528487018b81528787018b8152600086815260028089529089902099518a546001600160a01b0319169516949094178955905160018901555196909101959095558351948552918401889052918301869052820181905291507fd1a23f8bd6edfed2ffb9d7bb4aa148eb528eb60289342f7f11a17b7cbcdaa0f69060800160405180910390a1949350505050565b600082815260026020819052604090912090810154421061046b5760405162461bcd60e51b815260206004820152602660248201527f426f6e642773206e65787420636f75706f6e206461746520697320696e20746860448201526519481c185cdd60d21b60648201526084016102af565b60018054908201546040516323b872dd60e01b815233600482015230602482015260448101919091526001600160a01b03909116906323b872dd906064016020604051808303816000875af11580156104c8573d6000803e3d6000fd5b505050506040513d601f19601f820116820180604052508101906104ec91906112cf565b506040805161010080820183526004805483526020808401888152338587018181526000606080890182815260808a018d8152600160a08c0181815260c08d0186815260e08e018781526003805494850181559097528d517fc2575a0e9e593c00f959f8c92f12db2869c3395a3b0502d05e2516446f71f85b60069094029384015598517fc2575a0e9e593c00f959f8c92f12db2869c3395a3b0502d05e2516446f71f85c83015595517fc2575a0e9e593c00f959f8c92f12db2869c3395a3b0502d05e2516446f71f85d820180546001600160a01b03199081166001600160a01b039384161790915593517fc2575a0e9e593c00f959f8c92f12db2869c3395a3b0502d05e2516446f71f85e830180549095169082161790935590517fc2575a0e9e593c00f959f8c92f12db2869c3395a3b0502d05e2516446f71f85f82015593517fc2575a0e9e593c00f959f8c92f12db2869c3395a3b0502d05e2516446f71f86090940180549651935161ffff1990971694151561ff001916949094179215159098029190911762ff0000191662010000941515949094029390931790559254875460028901548851919096168152928301899052958201939093529293909290917f23178ce8487588929aa3a265382d74c9f8d126c671691ded254806965a8a109b910160405180910390a3600480549060006106ec8361130e565b919050555050505050565b610724604051806060016040528060006001600160a01b0316815260200160008152602001600081525090565b50600090815260026020818152604092839020835160608101855281546001600160a01b03168152600182015492810192909252909101549181019190915290565b6003818154811061077657600080fd5b600091825260209091206006909102018054600182015460028301546003840154600485015460059095015493955091936001600160a01b0391821693929091169160ff808216916101008104821691620100009091041688565b6000600382815481106107e6576107e6611327565b60009182526020909120600690910201600581015490915060ff1661081d5760405162461bcd60e51b81526004016102af9061133d565b600581015462010000900460ff16156108785760405162461bcd60e51b815260206004820152601e60248201527f43445320616c72656164792061636375736564206f662064656661756c74000060448201526064016102af565b60038101546001600160a01b031633148061089f575060028101546001600160a01b031633145b6108eb5760405162461bcd60e51b815260206004820152601c60248201527f4e6f742074686520434453206f776e6572206f722063726561746f720000000060448201526064016102af565b600181015460009081526002602081905260409091209081015442906109149062069780611366565b116109615760405162461bcd60e51b815260206004820152601c60248201527f43445320766572696669636174696f6e2074696d65207061737365640000000060448201526064016102af565b60058201805462ff0000191662010000179055604051339084907f6929a2633a171eff80d2e3becb50892a5673df32efe0a9f74ad7abc86ebe367d90600090a3505050565b6000600382815481106109bb576109bb611327565b600091825260209091206002600690920201908101549091506001600160a01b03163314610a3f5760405162461bcd60e51b815260206004820152602b60248201527f4f6e6c7920746865204344532063726561746f722063616e207265636f76657260448201526a0818dbdb1b185d195c985b60aa1b60648201526084016102af565b600581015460ff16610a875760405162461bcd60e51b8152602060048201526011602482015270434453206973206e6f742061637469766560781b60448201526064016102af565b600581015462010000900460ff1615610ae25760405162461bcd60e51b815260206004820152601f60248201527f43445320686173206265656e2061636375736564206f662064656661756c740060448201526064016102af565b6001810154600090815260026020819052604090912090810154610b099062069780611366565b4211610b7d5760405162461bcd60e51b815260206004820152603f60248201527f43616e6e6f74207265636f76657220636f6c6c61746572616c206265666f726560448201527f2035206461797320616674657220636f75706f6e2065787069726174696f6e0060648201526084016102af565b60058201805460ff191690556001805460028401549183015460405163a9059cbb60e01b81526001600160a01b039384166004820152602481019190915291169063a9059cbb906044016020604051808303816000875af1158015610be6573d6000803e3d6000fd5b505050506040513d601f19601f82011682018060405250810190610c0a91906112cf565b5060028201546040516001600160a01b039091169084907f9132b3682703876fb5369fdc02459c90d7845a0916902857592f46df40db0e0990600090a3505050565b6000546001600160a01b03163314610c765760405162461bcd60e51b81526004016102af9061128d565b600060038281548110610c8b57610c8b611327565b60009182526020909120600690910201600581015490915060ff16610cc25760405162461bcd60e51b81526004016102af9061133d565b6005810154610100900460ff1615610d125760405162461bcd60e51b815260206004820152601360248201527210d114c8185b1c9958591e4818db185a5b5959606a1b60448201526064016102af565b610d1b82611059565b604051339083907f0fd08b4e39c4ce4f71429e5703623ecf8e9e44292da54360f5469f5a95aca77690600090a35050565b6000546001600160a01b03163314610d765760405162461bcd60e51b81526004016102af9061128d565b600060038281548110610d8b57610d8b611327565b60009182526020909120600690910201600581015490915060ff16610dc25760405162461bcd60e51b81526004016102af9061133d565b6005810154610100900460ff1615610e165760405162461bcd60e51b815260206004820152601760248201527610db185a5b48185b1c9958591e481c1c9bd8d95cdcd959604a1b60448201526064016102af565b60058101805462ff000019169055604051339083907f78b4b412880d7fb7821e4a88e59e97e143566bc57c548dfc5dc2d7565621675490600090a35050565b600060038281548110610e6a57610e6a611327565b60009182526020909120600690910201600581015490915060ff16610ec55760405162461bcd60e51b8152602060048201526011602482015270434453206973206e6f742061637469766560781b60448201526064016102af565b60038101546001600160a01b031615610f135760405162461bcd60e51b815260206004820152601060248201526f10d114c8185b1c9958591e481cdbdb1960821b60448201526064016102af565b60018101546000908152600260208190526040909120908101544210610f8a5760405162461bcd60e51b815260206004820152602660248201527f426f6e64277320636f75706f6e2064617465207061737365642c2043445320656044820152651e1c1a5c995960d21b60648201526084016102af565b60015460028301546004808501546040516323b872dd60e01b815233928101929092526001600160a01b03928316602483015260448201529116906323b872dd906064016020604051808303816000875af1158015610fed573d6000803e3d6000fd5b505050506040513d601f19601f8201168201806040525081019061101191906112cf565b506003820180546001600160a01b0319163390811790915560405184907f29a7742efa803badc457b2ff6e1a69cd2e2ec88f0dfe69cee0a17ce0ef7384fa90600090a3505050565b60006003828154811061106e5761106e611327565b60009182526020909120600690910201600581015490915060ff166110d55760405162461bcd60e51b815260206004820152601f60248201527f43445320616c726561647920636c61696d6564206f7220696e6163746976650060448201526064016102af565b6005810154610100900460ff16156111295760405162461bcd60e51b815260206004820152601760248201527610db185a5b48185b1c9958591e481c1c9bd8d95cdcd959604a1b60448201526064016102af565b600181810154600090815260026020526040908190208254600385015493820154925163a9059cbb60e01b81526001600160a01b03948516600482015260248101939093529092169063a9059cbb906044016020604051808303816000875af115801561119a573d6000803e3d6000fd5b505050506040513d601f19601f820116820180604052508101906111be91906112cf565b5060058201805461ffff191661010017905560038201546040516001600160a01b039091169084907fc82e5847744f65d429e2586b24212e8cad4e677da9a21ae894630ffdfff19b6e90600090a3505050565b60008060006060848603121561122657600080fd5b83356001600160a01b038116811461123d57600080fd5b95602085013595506040909401359392505050565b6000806040838503121561126557600080fd5b50508035926020909101359150565b60006020828403121561128657600080fd5b5035919050565b60208082526022908201527f4f6e6c792061646d696e2063616e20706572666f726d2074686973206163746960408201526137b760f11b606082015260800190565b6000602082840312156112e157600080fd5b815180151581146112f157600080fd5b9392505050565b634e487b7160e01b600052601160045260246000fd5b600060018201611320576113206112f8565b5060010190565b634e487b7160e01b600052603260045260246000fd5b6020808252600f908201526e43445320697320696e61637469766560881b604082015260600190565b80820180821115611379576113796112f8565b9291505056fea2646970667358221220f701d70c7cad1ca204ee5d3477cd88bf76c876697827fa30e05f0c164a07563c64736f6c634300081a00330000000000000000000000001702087c0038e3b656de6426566582f66265de0e000000000000000000000000f39fd6e51aad88f6f4ce6ab8827279cfffb92266",
        "nonce": "0x13cc",
        "chainId": "0x14a34"
      },
      "additionalContracts": [],
      "isFixedGasLimit": false
    },
    {
      "hash": "0x931443e0cccb807c2e3a6a6641cde7fe59706a5d9de592acc9f668d2a0cd5f20",
      "transactionType": "CALL",
      "contractName": "CDSManager",
      "contractAddress": "0xa27f421da9a433b99b6fad810f74ba666f7f106f",
      "function": "addBond(address,uint256,uint256)",
      "arguments": [
        "0xbcB5CB18a5CAa970Fe18669e59737f69893DE900",
        "100000000",
        "1731343170"
      ],
      "transaction": {
        "from": "0xf39fd6e51aad88f6f4ce6ab8827279cfffb92266",
        "to": "0xa27f421da9a433b99b6fad810f74ba666f7f106f",
        "gas": "0x1f557",
        "value": "0x0",
        "input": "0x0a61e29a000000000000000000000000bcb5cb18a5caa970fe18669e59737f69893de9000000000000000000000000000000000000000000000000000000000005f5e1000000000000000000000000000000000000000000000000000000000067323342",
        "nonce": "0x13cd",
        "chainId": "0x14a34"
      },
      "additionalContracts": [],
      "isFixedGasLimit": false
    },
    {
      "hash": "0x4ceae8d77e1ddeab252e89625bbb41e956b5639e1744099db1b6a3fb09197e5b",
      "transactionType": "CALL",
      "contractName": "CDSManager",
      "contractAddress": "0xa27f421da9a433b99b6fad810f74ba666f7f106f",
      "function": "addBond(address,uint256,uint256)",
      "arguments": [
        "0x17BCB6653b0e560D7961072A7dcb17f428a92c8d",
        "100000000",
        "1731343170"
      ],
      "transaction": {
        "from": "0xf39fd6e51aad88f6f4ce6ab8827279cfffb92266",
        "to": "0xa27f421da9a433b99b6fad810f74ba666f7f106f",
        "gas": "0x212e7",
        "value": "0x0",
        "input": "0x0a61e29a00000000000000000000000017bcb6653b0e560d7961072a7dcb17f428a92c8d0000000000000000000000000000000000000000000000000000000005f5e1000000000000000000000000000000000000000000000000000000000067323342",
        "nonce": "0x13ce",
        "chainId": "0x14a34"
      },
      "additionalContracts": [],
      "isFixedGasLimit": false
    },
    {
      "hash": "0x57fb88aa476bbf3ca32c13514361f93189a8a774107baed448e56b13e99f521c",
      "transactionType": "CALL",
      "contractName": "CDSManager",
      "contractAddress": "0xa27f421da9a433b99b6fad810f74ba666f7f106f",
      "function": "addBond(address,uint256,uint256)",
      "arguments": [
        "0x895F4555EdFa373F2207918D9e1640C48E4288Ce",
        "100000000",
        "1731343170"
      ],
      "transaction": {
        "from": "0xf39fd6e51aad88f6f4ce6ab8827279cfffb92266",
        "to": "0xa27f421da9a433b99b6fad810f74ba666f7f106f",
        "gas": "0x212e7",
        "value": "0x0",
        "input": "0x0a61e29a000000000000000000000000895f4555edfa373f2207918d9e1640c48e4288ce0000000000000000000000000000000000000000000000000000000005f5e1000000000000000000000000000000000000000000000000000000000067323342",
        "nonce": "0x13cf",
        "chainId": "0x14a34"
      },
      "additionalContracts": [],
      "isFixedGasLimit": false
    }
  ],
  "receipts": [
    {
      "status": "0x1",
      "cumulativeGasUsed": "0x1233a1",
      "logs": [],
      "logsBloom": "0x00000000000000000000000000000000000000000000000000000000000000000000000000000000000000000000000000000000000000000000000000000000000000000000000000000000000000000000000000000000000000000000000000000000000000000000000000000000000000000000000000000000000000000000000000000000000000000000000000000000000000000000000000000000000000000000000000000000000000000000000000000000000000000000000000000000000000000000000000000000000000000000000000000000000000000000000000000000000000000000000000000000000000000000000000000000",
      "type": "0x2",
      "transactionHash": "0x627641e2df559a6b578fc87e94560bfcf0cf859f8a4ee6d4db2b55d19fad7278",
      "transactionIndex": "0x0",
      "blockHash": "0xc6f0b2d0c5229ea3a082b8c64f928f19950046e32ae2aeff6d0fa7fd8e16d37e",
      "blockNumber": "0xfbab2a",
      "gasUsed": "0x1233a1",
      "effectiveGasPrice": "0x8",
      "blobGasPrice": "0x1",
      "from": "0xf39fd6e51aad88f6f4ce6ab8827279cfffb92266",
      "to": null,
      "contractAddress": "0xa27f421da9a433b99b6fad810f74ba666f7f106f",
      "root": "0x0000000000000000000000000000000000000000000000000000000000000000"
    },
    {
      "status": "0x1",
      "cumulativeGasUsed": "0x139e98",
      "logs": [
        {
          "address": "0xa27f421da9a433b99b6fad810f74ba666f7f106f",
          "topics": [
            "0xd1a23f8bd6edfed2ffb9d7bb4aa148eb528eb60289342f7f11a17b7cbcdaa0f6"
          ],
          "data": "0x000000000000000000000000bcb5cb18a5caa970fe18669e59737f69893de9000000000000000000000000000000000000000000000000000000000005f5e10000000000000000000000000000000000000000000000000000000000673233421c7ce5c0195081f45db504a6dc46ee2101400c030367f2def3462556d21b549b",
          "blockHash": "0xc6f0b2d0c5229ea3a082b8c64f928f19950046e32ae2aeff6d0fa7fd8e16d37e",
          "blockNumber": "0xfbab2a",
          "blockTimestamp": "0x670aa643",
          "transactionHash": "0x931443e0cccb807c2e3a6a6641cde7fe59706a5d9de592acc9f668d2a0cd5f20",
          "transactionIndex": "0x1",
          "logIndex": "0x0",
          "removed": false
        }
      ],
      "logsBloom": "0x00000000000000000000000000000000000000000000000000000000000000000000000000000000000000000000000000000800000000000000000000000000000000000000000000000000000000008000000000000000000000000000000000000000000000000002000000000000000000000000000000000000000000000000000800000000000000000000000000000000000000800000000000000000000000000000000000000000000000000000000000000000000000000000000000000000000000000000000000002000000000000000000000000000000000000000000000000000000000000000000000000000000000000000000000000000",
      "type": "0x2",
      "transactionHash": "0x931443e0cccb807c2e3a6a6641cde7fe59706a5d9de592acc9f668d2a0cd5f20",
      "transactionIndex": "0x1",
      "blockHash": "0xc6f0b2d0c5229ea3a082b8c64f928f19950046e32ae2aeff6d0fa7fd8e16d37e",
      "blockNumber": "0xfbab2a",
      "gasUsed": "0x16af7",
      "effectiveGasPrice": "0x8",
      "blobGasPrice": "0x1",
      "from": "0xf39fd6e51aad88f6f4ce6ab8827279cfffb92266",
      "to": "0xa27f421da9a433b99b6fad810f74ba666f7f106f",
      "contractAddress": null,
      "root": "0x0000000000000000000000000000000000000000000000000000000000000000"
    },
    {
      "status": "0x1",
      "cumulativeGasUsed": "0x15099b",
      "logs": [
        {
          "address": "0xa27f421da9a433b99b6fad810f74ba666f7f106f",
          "topics": [
            "0xd1a23f8bd6edfed2ffb9d7bb4aa148eb528eb60289342f7f11a17b7cbcdaa0f6"
          ],
          "data": "0x00000000000000000000000017bcb6653b0e560d7961072a7dcb17f428a92c8d0000000000000000000000000000000000000000000000000000000005f5e1000000000000000000000000000000000000000000000000000000000067323342c0224b1036d9fcbdee350b6579dd8493137320aea44479f0a0b8c8a63f46d430",
          "blockHash": "0xc6f0b2d0c5229ea3a082b8c64f928f19950046e32ae2aeff6d0fa7fd8e16d37e",
          "blockNumber": "0xfbab2a",
          "blockTimestamp": "0x670aa643",
          "transactionHash": "0x4ceae8d77e1ddeab252e89625bbb41e956b5639e1744099db1b6a3fb09197e5b",
          "transactionIndex": "0x2",
          "logIndex": "0x1",
          "removed": false
        }
      ],
      "logsBloom": "0x00000000000000000000000000000000000000000000000000000000000000000000000000000000000000000000000000000800000000000000000000000000000000000000000000000000000000008000000000000000000000000000000000000000000000000002000000000000000000000000000000000000000000000000000800000000000000000000000000000000000000800000000000000000000000000000000000000000000000000000000000000000000000000000000000000000000000000000000000002000000000000000000000000000000000000000000000000000000000000000000000000000000000000000000000000000",
      "type": "0x2",
      "transactionHash": "0x4ceae8d77e1ddeab252e89625bbb41e956b5639e1744099db1b6a3fb09197e5b",
      "transactionIndex": "0x2",
      "blockHash": "0xc6f0b2d0c5229ea3a082b8c64f928f19950046e32ae2aeff6d0fa7fd8e16d37e",
      "blockNumber": "0xfbab2a",
      "gasUsed": "0x16b03",
      "effectiveGasPrice": "0x8",
      "blobGasPrice": "0x1",
      "from": "0xf39fd6e51aad88f6f4ce6ab8827279cfffb92266",
      "to": "0xa27f421da9a433b99b6fad810f74ba666f7f106f",
      "contractAddress": null,
      "root": "0x0000000000000000000000000000000000000000000000000000000000000000"
    },
    {
      "status": "0x1",
      "cumulativeGasUsed": "0x16749e",
      "logs": [
        {
          "address": "0xa27f421da9a433b99b6fad810f74ba666f7f106f",
          "topics": [
            "0xd1a23f8bd6edfed2ffb9d7bb4aa148eb528eb60289342f7f11a17b7cbcdaa0f6"
          ],
          "data": "0x000000000000000000000000895f4555edfa373f2207918d9e1640c48e4288ce0000000000000000000000000000000000000000000000000000000005f5e1000000000000000000000000000000000000000000000000000000000067323342caf2628b3a5e90aa1f16de71f3f68cb383c863b910b208dc6dcab88f0e08dbd2",
          "blockHash": "0xc6f0b2d0c5229ea3a082b8c64f928f19950046e32ae2aeff6d0fa7fd8e16d37e",
          "blockNumber": "0xfbab2a",
          "blockTimestamp": "0x670aa643",
          "transactionHash": "0x57fb88aa476bbf3ca32c13514361f93189a8a774107baed448e56b13e99f521c",
          "transactionIndex": "0x3",
          "logIndex": "0x2",
          "removed": false
        }
      ],
      "logsBloom": "0x00000000000000000000000000000000000000000000000000000000000000000000000000000000000000000000000000000800000000000000000000000000000000000000000000000000000000008000000000000000000000000000000000000000000000000002000000000000000000000000000000000000000000000000000800000000000000000000000000000000000000800000000000000000000000000000000000000000000000000000000000000000000000000000000000000000000000000000000000002000000000000000000000000000000000000000000000000000000000000000000000000000000000000000000000000000",
      "type": "0x2",
      "transactionHash": "0x57fb88aa476bbf3ca32c13514361f93189a8a774107baed448e56b13e99f521c",
      "transactionIndex": "0x3",
      "blockHash": "0xc6f0b2d0c5229ea3a082b8c64f928f19950046e32ae2aeff6d0fa7fd8e16d37e",
      "blockNumber": "0xfbab2a",
      "gasUsed": "0x16b03",
      "effectiveGasPrice": "0x8",
      "blobGasPrice": "0x1",
      "from": "0xf39fd6e51aad88f6f4ce6ab8827279cfffb92266",
      "to": "0xa27f421da9a433b99b6fad810f74ba666f7f106f",
      "contractAddress": null,
      "root": "0x0000000000000000000000000000000000000000000000000000000000000000"
    }
  ],
  "libraries": [],
  "pending": [],
  "returns": {},
  "timestamp": 1728751174,
  "chain": 84532,
  "commit": "465f6b1"
}