{
  "transactions": [
    {
      "hash": "0x92f8c955239422cfe6b7e7ab5574362149ce96bbe873ed099ae5646730d0cc74",
      "transactionType": "CREATE",
      "contractName": "CDSManager",
      "contractAddress": "0x78c38c6b36de74cbb2ea5098cd4931bb80b24155",
      "function": null,
      "arguments": [
        "0x1702087C0038e3b656DE6426566582F66265dE0e",
        "0xf39Fd6e51aad88F6F4ce6aB8827279cffFb92266"
      ],
      "transaction": {
        "from": "0xf39fd6e51aad88f6f4ce6ab8827279cfffb92266",
        "gas": "0x17430f",
        "value": "0x0",
        "input": "0x60806040526000600455348015601457600080fd5b50604051611412380380611412833981016040819052603191607c565b600180546001600160a01b039384166001600160a01b0319918216179091556000805492909316911617905560aa565b80516001600160a01b0381168114607757600080fd5b919050565b60008060408385031215608e57600080fd5b6095836061565b915060a1602084016061565b90509250929050565b611359806100b96000396000f3fe608060405234801561001057600080fd5b50600436106100b45760003560e01c806371f656961161007157806371f65696146101f0578063a41cb5f11461022a578063ceff13671461023d578063df6f05e714610250578063e67bd78c14610259578063f851a4401461026c57600080fd5b80630a61e29a146100b95780631928c64f146100df57806326d6c97b146100f45780633c3cc8151461016a5780635a73c303146101ca57806363b7577a146101dd575b600080fd5b6100cc6100c73660046111b5565b610297565b6040519081526020015b60405180910390f35b6100f26100ed3660046111f6565b61040c565b005b610145610102366004611218565b600090815260026020818152604092839020835160608101855281546001600160a01b031680825260018301549382018490529190930154929093018290529192565b604080516001600160a01b0390941684526020840192909252908201526060016100d6565b61017d610178366004611218565b61070a565b6040805198895260208901979097526001600160a01b03958616968801969096529390921660608601526080850152151560a0840152151560c0830152151560e0820152610100016100d6565b6100f26101d8366004611218565b610775565b6100f26101eb366004611218565b61094a565b6101456101fe366004611218565b60026020819052600091825260409091208054600182015491909201546001600160a01b039092169183565b6100f2610238366004611218565b610bf0565b6100f261024b366004611218565b610cf0565b6100cc60045481565b6100f2610267366004611218565b610df9565b60005461027f906001600160a01b031681565b6040516001600160a01b0390911681526020016100d6565b600080546001600160a01b031633146102cb5760405162461bcd60e51b81526004016102c290611231565b60405180910390fd5b4282116103295760405162461bcd60e51b815260206004820152602660248201527f4e65787420636f75706f6e2064617465206d75737420626520696e207468652060448201526566757475726560d01b60648201526084016102c2565b6040516bffffffffffffffffffffffff19606086901b1660208201526034810183905260009060540160408051808303601f190181528282528051602091820120606080850184526001600160a01b038a81168087528487018b81528787018b8152600086815260028089529089902099518a546001600160a01b0319169516949094178955905160018901555196909101959095558351948552918401889052918301869052820181905291507fd1a23f8bd6edfed2ffb9d7bb4aa148eb528eb60289342f7f11a17b7cbcdaa0f69060800160405180910390a1949350505050565b600082815260026020819052604090912090810154421061047e5760405162461bcd60e51b815260206004820152602660248201527f426f6e642773206e65787420636f75706f6e206461746520697320696e20746860448201526519481c185cdd60d21b60648201526084016102c2565b60018054908201546040516323b872dd60e01b815233600482015230602482015260448101919091526001600160a01b03909116906323b872dd906064016020604051808303816000875af11580156104db573d6000803e3d6000fd5b505050506040513d601f19601f820116820180604052508101906104ff9190611273565b506040805161010080820183526004805483526020808401888152338587018181526000606080890182815260808a018d8152600160a08c0181815260c08d0186815260e08e018781526003805494850181559097528d517fc2575a0e9e593c00f959f8c92f12db2869c3395a3b0502d05e2516446f71f85b60069094029384015598517fc2575a0e9e593c00f959f8c92f12db2869c3395a3b0502d05e2516446f71f85c83015595517fc2575a0e9e593c00f959f8c92f12db2869c3395a3b0502d05e2516446f71f85d820180546001600160a01b03199081166001600160a01b039384161790915593517fc2575a0e9e593c00f959f8c92f12db2869c3395a3b0502d05e2516446f71f85e830180549095169082161790935590517fc2575a0e9e593c00f959f8c92f12db2869c3395a3b0502d05e2516446f71f85f82015593517fc2575a0e9e593c00f959f8c92f12db2869c3395a3b0502d05e2516446f71f86090940180549651935161ffff1990971694151561ff001916949094179215159098029190911762ff0000191662010000941515949094029390931790559254875460028901548851919096168152928301899052958201939093529293909290917f23178ce8487588929aa3a265382d74c9f8d126c671691ded254806965a8a109b910160405180910390a3600480549060006106ff836112b2565b919050555050505050565b6003818154811061071a57600080fd5b600091825260209091206006909102018054600182015460028301546003840154600485015460059095015493955091936001600160a01b0391821693929091169160ff808216916101008104821691620100009091041688565b60006003828154811061078a5761078a6112cb565b60009182526020909120600690910201600581015490915060ff166107c15760405162461bcd60e51b81526004016102c2906112e1565b600581015462010000900460ff161561081c5760405162461bcd60e51b815260206004820152601e60248201527f43445320616c72656164792061636375736564206f662064656661756c74000060448201526064016102c2565b60038101546001600160a01b0316331480610843575060028101546001600160a01b031633145b61088f5760405162461bcd60e51b815260206004820152601c60248201527f4e6f742074686520434453206f776e6572206f722063726561746f720000000060448201526064016102c2565b600181015460009081526002602081905260409091209081015442906108b8906206978061130a565b116109055760405162461bcd60e51b815260206004820152601c60248201527f43445320766572696669636174696f6e2074696d65207061737365640000000060448201526064016102c2565b60058201805462ff0000191662010000179055604051339084907f6929a2633a171eff80d2e3becb50892a5673df32efe0a9f74ad7abc86ebe367d90600090a3505050565b60006003828154811061095f5761095f6112cb565b600091825260209091206002600690920201908101549091506001600160a01b031633146109e35760405162461bcd60e51b815260206004820152602b60248201527f4f6e6c7920746865204344532063726561746f722063616e207265636f76657260448201526a0818dbdb1b185d195c985b60aa1b60648201526084016102c2565b600581015460ff16610a2b5760405162461bcd60e51b8152602060048201526011602482015270434453206973206e6f742061637469766560781b60448201526064016102c2565b600581015462010000900460ff1615610a865760405162461bcd60e51b815260206004820152601f60248201527f43445320686173206265656e2061636375736564206f662064656661756c740060448201526064016102c2565b6001810154600090815260026020819052604090912090810154610aad906206978061130a565b4211610b215760405162461bcd60e51b815260206004820152603f60248201527f43616e6e6f74207265636f76657220636f6c6c61746572616c206265666f726560448201527f2035206461797320616674657220636f75706f6e2065787069726174696f6e0060648201526084016102c2565b60058201805460ff191690556001805460028401549183015460405163a9059cbb60e01b81526001600160a01b039384166004820152602481019190915291169063a9059cbb906044016020604051808303816000875af1158015610b8a573d6000803e3d6000fd5b505050506040513d601f19601f82011682018060405250810190610bae9190611273565b5060028201546040516001600160a01b039091169084907f9132b3682703876fb5369fdc02459c90d7845a0916902857592f46df40db0e0990600090a3505050565b6000546001600160a01b03163314610c1a5760405162461bcd60e51b81526004016102c290611231565b600060038281548110610c2f57610c2f6112cb565b60009182526020909120600690910201600581015490915060ff16610c665760405162461bcd60e51b81526004016102c2906112e1565b6005810154610100900460ff1615610cb65760405162461bcd60e51b815260206004820152601360248201527210d114c8185b1c9958591e4818db185a5b5959606a1b60448201526064016102c2565b610cbf82610ffd565b604051339083907f0fd08b4e39c4ce4f71429e5703623ecf8e9e44292da54360f5469f5a95aca77690600090a35050565b6000546001600160a01b03163314610d1a5760405162461bcd60e51b81526004016102c290611231565b600060038281548110610d2f57610d2f6112cb565b60009182526020909120600690910201600581015490915060ff16610d665760405162461bcd60e51b81526004016102c2906112e1565b6005810154610100900460ff1615610dba5760405162461bcd60e51b815260206004820152601760248201527610db185a5b48185b1c9958591e481c1c9bd8d95cdcd959604a1b60448201526064016102c2565b60058101805462ff000019169055604051339083907f78b4b412880d7fb7821e4a88e59e97e143566bc57c548dfc5dc2d7565621675490600090a35050565b600060038281548110610e0e57610e0e6112cb565b60009182526020909120600690910201600581015490915060ff16610e695760405162461bcd60e51b8152602060048201526011602482015270434453206973206e6f742061637469766560781b60448201526064016102c2565b60038101546001600160a01b031615610eb75760405162461bcd60e51b815260206004820152601060248201526f10d114c8185b1c9958591e481cdbdb1960821b60448201526064016102c2565b60018101546000908152600260208190526040909120908101544210610f2e5760405162461bcd60e51b815260206004820152602660248201527f426f6e64277320636f75706f6e2064617465207061737365642c2043445320656044820152651e1c1a5c995960d21b60648201526084016102c2565b60015460028301546004808501546040516323b872dd60e01b815233928101929092526001600160a01b03928316602483015260448201529116906323b872dd906064016020604051808303816000875af1158015610f91573d6000803e3d6000fd5b505050506040513d601f19601f82011682018060405250810190610fb59190611273565b506003820180546001600160a01b0319163390811790915560405184907f29a7742efa803badc457b2ff6e1a69cd2e2ec88f0dfe69cee0a17ce0ef7384fa90600090a3505050565b600060038281548110611012576110126112cb565b60009182526020909120600690910201600581015490915060ff166110795760405162461bcd60e51b815260206004820152601f60248201527f43445320616c726561647920636c61696d6564206f7220696e6163746976650060448201526064016102c2565b6005810154610100900460ff16156110cd5760405162461bcd60e51b815260206004820152601760248201527610db185a5b48185b1c9958591e481c1c9bd8d95cdcd959604a1b60448201526064016102c2565b600181810154600090815260026020526040908190208254600385015493820154925163a9059cbb60e01b81526001600160a01b03948516600482015260248101939093529092169063a9059cbb906044016020604051808303816000875af115801561113e573d6000803e3d6000fd5b505050506040513d601f19601f820116820180604052508101906111629190611273565b5060058201805461ffff191661010017905560038201546040516001600160a01b039091169084907fc82e5847744f65d429e2586b24212e8cad4e677da9a21ae894630ffdfff19b6e90600090a3505050565b6000806000606084860312156111ca57600080fd5b83356001600160a01b03811681146111e157600080fd5b95602085013595506040909401359392505050565b6000806040838503121561120957600080fd5b50508035926020909101359150565b60006020828403121561122a57600080fd5b5035919050565b60208082526022908201527f4f6e6c792061646d696e2063616e20706572666f726d2074686973206163746960408201526137b760f11b606082015260800190565b60006020828403121561128557600080fd5b8151801515811461129557600080fd5b9392505050565b634e487b7160e01b600052601160045260246000fd5b6000600182016112c4576112c461129c565b5060010190565b634e487b7160e01b600052603260045260246000fd5b6020808252600f908201526e43445320697320696e61637469766560881b604082015260600190565b8082018082111561131d5761131d61129c565b9291505056fea26469706673582212206503bf7908f153d70195d4e9cece5d0aef3fc5ff727c3df1e9f391d2fad7430564736f6c634300081a00330000000000000000000000001702087c0038e3b656de6426566582f66265de0e000000000000000000000000f39fd6e51aad88f6f4ce6ab8827279cfffb92266",
        "nonce": "0x13ae",
        "chainId": "0x14a34"
      },
      "additionalContracts": [],
      "isFixedGasLimit": false
    },
    {
      "hash": "0xaf8934959f8d0ff46e6af8cb26ca60f1aca606f398f64031db44b67fbb1badd7",
      "transactionType": "CALL",
      "contractName": "CDSManager",
      "contractAddress": "0x78c38c6b36de74cbb2ea5098cd4931bb80b24155",
      "function": "addBond(address,uint256,uint256)",
      "arguments": [
        "0xbcB5CB18a5CAa970Fe18669e59737f69893DE900",
        "100000000",
        "1731346933"
      ],
      "transaction": {
        "from": "0xf39fd6e51aad88f6f4ce6ab8827279cfffb92266",
        "to": "0x78c38c6b36de74cbb2ea5098cd4931bb80b24155",
        "gas": "0x1f557",
        "value": "0x0",
        "input": "0x0a61e29a000000000000000000000000bcb5cb18a5caa970fe18669e59737f69893de9000000000000000000000000000000000000000000000000000000000005f5e10000000000000000000000000000000000000000000000000000000000673241f5",
        "nonce": "0x13af",
        "chainId": "0x14a34"
      },
      "additionalContracts": [],
      "isFixedGasLimit": false
    },
    {
      "hash": "0xec94d46ae5363ae43473b8b07071a4e4ad4d60b2e5841b6065a633c7c8c3dcec",
      "transactionType": "CALL",
      "contractName": "CDSManager",
      "contractAddress": "0x78c38c6b36de74cbb2ea5098cd4931bb80b24155",
      "function": "addBond(address,uint256,uint256)",
      "arguments": [
        "0x17BCB6653b0e560D7961072A7dcb17f428a92c8d",
        "100000000",
        "1731346933"
      ],
      "transaction": {
        "from": "0xf39fd6e51aad88f6f4ce6ab8827279cfffb92266",
        "to": "0x78c38c6b36de74cbb2ea5098cd4931bb80b24155",
        "gas": "0x212e7",
        "value": "0x0",
        "input": "0x0a61e29a00000000000000000000000017bcb6653b0e560d7961072a7dcb17f428a92c8d0000000000000000000000000000000000000000000000000000000005f5e10000000000000000000000000000000000000000000000000000000000673241f5",
        "nonce": "0x13b0",
        "chainId": "0x14a34"
      },
      "additionalContracts": [],
      "isFixedGasLimit": false
    },
    {
      "hash": "0xba6c8c25d21ea5c79a9d6b09504d5a9d859c695f23364a60df4d8ff7d3245406",
      "transactionType": "CALL",
      "contractName": "CDSManager",
      "contractAddress": "0x78c38c6b36de74cbb2ea5098cd4931bb80b24155",
      "function": "addBond(address,uint256,uint256)",
      "arguments": [
        "0x895F4555EdFa373F2207918D9e1640C48E4288Ce",
        "100000000",
        "1731346933"
      ],
      "transaction": {
        "from": "0xf39fd6e51aad88f6f4ce6ab8827279cfffb92266",
        "to": "0x78c38c6b36de74cbb2ea5098cd4931bb80b24155",
        "gas": "0x212e7",
        "value": "0x0",
        "input": "0x0a61e29a000000000000000000000000895f4555edfa373f2207918d9e1640c48e4288ce0000000000000000000000000000000000000000000000000000000005f5e10000000000000000000000000000000000000000000000000000000000673241f5",
        "nonce": "0x13b1",
        "chainId": "0x14a34"
      },
      "additionalContracts": [],
      "isFixedGasLimit": false
    }
  ],
  "receipts": [
    {
      "status": "0x1",
      "cumulativeGasUsed": "0x11e617",
      "logs": [],
      "logsBloom": "0x00000000000000000000000000000000000000000000000000000000000000000000000000000000000000000000000000000000000000000000000000000000000000000000000000000000000000000000000000000000000000000000000000000000000000000000000000000000000000000000000000000000000000000000000000000000000000000000000000000000000000000000000000000000000000000000000000000000000000000000000000000000000000000000000000000000000000000000000000000000000000000000000000000000000000000000000000000000000000000000000000000000000000000000000000000000",
      "type": "0x2",
      "transactionHash": "0x92f8c955239422cfe6b7e7ab5574362149ce96bbe873ed099ae5646730d0cc74",
      "transactionIndex": "0x0",
      "blockHash": "0x023d9b1e86cd8bd7579538c4463779f00da179bbd49a49c958c27689f98a6c37",
      "blockNumber": "0xfbab10",
      "gasUsed": "0x11e617",
      "effectiveGasPrice": "0x69775ac",
      "blobGasPrice": "0x1",
      "from": "0xf39fd6e51aad88f6f4ce6ab8827279cfffb92266",
      "to": null,
      "contractAddress": "0x78c38c6b36de74cbb2ea5098cd4931bb80b24155",
      "root": "0x0000000000000000000000000000000000000000000000000000000000000000"
    },
    {
      "status": "0x1",
      "cumulativeGasUsed": "0x13510e",
      "logs": [
        {
          "address": "0x78c38c6b36de74cbb2ea5098cd4931bb80b24155",
          "topics": [
            "0xd1a23f8bd6edfed2ffb9d7bb4aa148eb528eb60289342f7f11a17b7cbcdaa0f6"
          ],
          "data": "0x000000000000000000000000bcb5cb18a5caa970fe18669e59737f69893de9000000000000000000000000000000000000000000000000000000000005f5e10000000000000000000000000000000000000000000000000000000000673241f5b8fcafd1ce43c1050e87b43c0c45902a3af35600208f7cff437f2799b9f077a8",
          "blockHash": "0x023d9b1e86cd8bd7579538c4463779f00da179bbd49a49c958c27689f98a6c37",
          "blockNumber": "0xfbab10",
          "blockTimestamp": "0x670ab4f7",
          "transactionHash": "0xaf8934959f8d0ff46e6af8cb26ca60f1aca606f398f64031db44b67fbb1badd7",
          "transactionIndex": "0x1",
          "logIndex": "0x0",
          "removed": false
        }
      ],
      "logsBloom": "0x00000000000000000000000000000000000000000000000000000000000000000000000000000000000000000000000000000800000000000000000000000000000000000000000000000000002000000000000000000000008000000000000000000000000000000002000000000000000000000000000000000000000000000000000000000000000000000000000000000000000000000000000000000000000000000000000000000000000000000000000000000000000000000000000000000020000000000000000000002000000000000000000000000000000000000000000000000000000000000000000000000000000000000000000000000000",
      "type": "0x2",
      "transactionHash": "0xaf8934959f8d0ff46e6af8cb26ca60f1aca606f398f64031db44b67fbb1badd7",
      "transactionIndex": "0x1",
      "blockHash": "0x023d9b1e86cd8bd7579538c4463779f00da179bbd49a49c958c27689f98a6c37",
      "blockNumber": "0xfbab10",
      "gasUsed": "0x16af7",
      "effectiveGasPrice": "0x69775ac",
      "blobGasPrice": "0x1",
      "from": "0xf39fd6e51aad88f6f4ce6ab8827279cfffb92266",
      "to": "0x78c38c6b36de74cbb2ea5098cd4931bb80b24155",
      "contractAddress": null,
      "root": "0x0000000000000000000000000000000000000000000000000000000000000000"
    },
    {
      "status": "0x1",
      "cumulativeGasUsed": "0x14bc11",
      "logs": [
        {
          "address": "0x78c38c6b36de74cbb2ea5098cd4931bb80b24155",
          "topics": [
            "0xd1a23f8bd6edfed2ffb9d7bb4aa148eb528eb60289342f7f11a17b7cbcdaa0f6"
          ],
          "data": "0x00000000000000000000000017bcb6653b0e560d7961072a7dcb17f428a92c8d0000000000000000000000000000000000000000000000000000000005f5e10000000000000000000000000000000000000000000000000000000000673241f56c43be3a71260880299b119ab94f125f30b761ddba28f8fb21aed3e0fb74b07f",
          "blockHash": "0x023d9b1e86cd8bd7579538c4463779f00da179bbd49a49c958c27689f98a6c37",
          "blockNumber": "0xfbab10",
          "blockTimestamp": "0x670ab4f7",
          "transactionHash": "0xec94d46ae5363ae43473b8b07071a4e4ad4d60b2e5841b6065a633c7c8c3dcec",
          "transactionIndex": "0x2",
          "logIndex": "0x1",
          "removed": false
        }
      ],
      "logsBloom": "0x00000000000000000000000000000000000000000000000000000000000000000000000000000000000000000000000000000800000000000000000000000000000000000000000000000000002000000000000000000000008000000000000000000000000000000002000000000000000000000000000000000000000000000000000000000000000000000000000000000000000000000000000000000000000000000000000000000000000000000000000000000000000000000000000000000020000000000000000000002000000000000000000000000000000000000000000000000000000000000000000000000000000000000000000000000000",
      "type": "0x2",
      "transactionHash": "0xec94d46ae5363ae43473b8b07071a4e4ad4d60b2e5841b6065a633c7c8c3dcec",
      "transactionIndex": "0x2",
      "blockHash": "0x023d9b1e86cd8bd7579538c4463779f00da179bbd49a49c958c27689f98a6c37",
      "blockNumber": "0xfbab10",
      "gasUsed": "0x16b03",
      "effectiveGasPrice": "0x69775ac",
      "blobGasPrice": "0x1",
      "from": "0xf39fd6e51aad88f6f4ce6ab8827279cfffb92266",
      "to": "0x78c38c6b36de74cbb2ea5098cd4931bb80b24155",
      "contractAddress": null,
      "root": "0x0000000000000000000000000000000000000000000000000000000000000000"
    },
    {
      "status": "0x1",
      "cumulativeGasUsed": "0x162714",
      "logs": [
        {
          "address": "0x78c38c6b36de74cbb2ea5098cd4931bb80b24155",
          "topics": [
            "0xd1a23f8bd6edfed2ffb9d7bb4aa148eb528eb60289342f7f11a17b7cbcdaa0f6"
          ],
          "data": "0x000000000000000000000000895f4555edfa373f2207918d9e1640c48e4288ce0000000000000000000000000000000000000000000000000000000005f5e10000000000000000000000000000000000000000000000000000000000673241f56c4ee4182ba117870a6d3b8279fc35a8805230580b85afd3b548f15f3cf101e5",
          "blockHash": "0x023d9b1e86cd8bd7579538c4463779f00da179bbd49a49c958c27689f98a6c37",
          "blockNumber": "0xfbab10",
          "blockTimestamp": "0x670ab4f7",
          "transactionHash": "0xba6c8c25d21ea5c79a9d6b09504d5a9d859c695f23364a60df4d8ff7d3245406",
          "transactionIndex": "0x3",
          "logIndex": "0x2",
          "removed": false
        }
      ],
      "logsBloom": "0x00000000000000000000000000000000000000000000000000000000000000000000000000000000000000000000000000000800000000000000000000000000000000000000000000000000002000000000000000000000008000000000000000000000000000000002000000000000000000000000000000000000000000000000000000000000000000000000000000000000000000000000000000000000000000000000000000000000000000000000000000000000000000000000000000000020000000000000000000002000000000000000000000000000000000000000000000000000000000000000000000000000000000000000000000000000",
      "type": "0x2",
      "transactionHash": "0xba6c8c25d21ea5c79a9d6b09504d5a9d859c695f23364a60df4d8ff7d3245406",
      "transactionIndex": "0x3",
      "blockHash": "0x023d9b1e86cd8bd7579538c4463779f00da179bbd49a49c958c27689f98a6c37",
      "blockNumber": "0xfbab10",
      "gasUsed": "0x16b03",
      "effectiveGasPrice": "0x69775ac",
      "blobGasPrice": "0x1",
      "from": "0xf39fd6e51aad88f6f4ce6ab8827279cfffb92266",
      "to": "0x78c38c6b36de74cbb2ea5098cd4931bb80b24155",
      "contractAddress": null,
      "root": "0x0000000000000000000000000000000000000000000000000000000000000000"
    }
  ],
  "libraries": [],
  "pending": [],
  "returns": {},
  "timestamp": 1728754937,
  "chain": 84532,
  "commit": "465f6b1"
}